{
  "_format": "hh-sol-artifact-1",
  "contractName": "Transation",
  "sourceName": "contracts/Transaction.sol",
  "abi": [
    {
      "anonymous": false,
      "inputs": [
        {
          "indexed": false,
          "internalType": "address",
          "name": "from",
          "type": "address"
        },
        {
          "indexed": false,
          "internalType": "address",
          "name": "reciver",
          "type": "address"
        },
        {
          "indexed": false,
          "internalType": "uint256",
          "name": "amount",
          "type": "uint256"
        },
        {
          "indexed": false,
          "internalType": "string",
          "name": "message",
          "type": "string"
        },
        {
          "indexed": false,
          "internalType": "uint256",
          "name": "timestamp",
          "type": "uint256"
        },
        {
          "indexed": false,
          "internalType": "string",
          "name": "keyword",
          "type": "string"
        }
      ],
      "name": "Transfer",
      "type": "event"
    },
    {
      "inputs": [
        {
          "internalType": "address payable",
          "name": "reciver",
          "type": "address"
        },
        {
          "internalType": "uint256",
          "name": "amount",
          "type": "uint256"
        },
        {
          "internalType": "string",
          "name": "message",
          "type": "string"
        },
        {
          "internalType": "string",
          "name": "keyword",
          "type": "string"
        }
      ],
      "name": "addTOBlockChain",
      "outputs": [],
      "stateMutability": "nonpayable",
      "type": "function"
    },
    {
      "inputs": [],
      "name": "getAllTransaction",
      "outputs": [
        {
          "components": [
            {
              "internalType": "address",
              "name": "sender",
              "type": "address"
            },
            {
              "internalType": "address payable",
              "name": "reciver",
              "type": "address"
            },
            {
              "internalType": "uint256",
              "name": "amount",
              "type": "uint256"
            },
            {
              "internalType": "string",
              "name": "message",
              "type": "string"
            },
            {
              "internalType": "uint256",
              "name": "timestamp",
              "type": "uint256"
            },
            {
              "internalType": "string",
              "name": "keyword",
              "type": "string"
            }
          ],
          "internalType": "struct Transation.TransferStruct[]",
          "name": "",
          "type": "tuple[]"
        }
      ],
      "stateMutability": "view",
      "type": "function"
    },
    {
      "inputs": [],
      "name": "getTransactionCount",
      "outputs": [
        {
          "internalType": "uint256",
          "name": "",
          "type": "uint256"
        }
      ],
      "stateMutability": "view",
      "type": "function"
    }
  ],
  "bytecode": "0x608060405234801561001057600080fd5b50610c1c806100206000396000f3fe608060405234801561001057600080fd5b50600436106100415760003560e01c8063143ad32d146100465780632e7700f014610062578063add6415d14610080575b600080fd5b610060600480360381019061005b91906105e1565b61009e565b005b61006a610260565b60405161007791906108ea565b60405180910390f35b610088610269565b60405161009591906108c8565b60405180910390f35b60016000808282546100b091906109cc565b9250508190555060016040518060c001604052803373ffffffffffffffffffffffffffffffffffffffff1681526020018673ffffffffffffffffffffffffffffffffffffffff16815260200185815260200184815260200142815260200183815250908060018154018082558091505060019003906000526020600020906006020160009091909190915060008201518160000160006101000a81548173ffffffffffffffffffffffffffffffffffffffff021916908373ffffffffffffffffffffffffffffffffffffffff16021790555060208201518160010160006101000a81548173ffffffffffffffffffffffffffffffffffffffff021916908373ffffffffffffffffffffffffffffffffffffffff1602179055506040820151816002015560608201518160030190805190602001906101ef9291906104ac565b506080820151816004015560a08201518160050190805190602001906102169291906104ac565b5050507f416cfa4330a4565f45c2fd2dd4826a83a37443aba2ce6f79477c7355afac35fa33858585428660405161025296959493929190610859565b60405180910390a150505050565b60008054905090565b60606001805480602002602001604051908101604052809291908181526020016000905b828210156104a357838290600052602060002090600602016040518060c00160405290816000820160009054906101000a900473ffffffffffffffffffffffffffffffffffffffff1673ffffffffffffffffffffffffffffffffffffffff1673ffffffffffffffffffffffffffffffffffffffff1681526020016001820160009054906101000a900473ffffffffffffffffffffffffffffffffffffffff1673ffffffffffffffffffffffffffffffffffffffff1673ffffffffffffffffffffffffffffffffffffffff1681526020016002820154815260200160038201805461037690610ae8565b80601f01602080910402602001604051908101604052809291908181526020018280546103a290610ae8565b80156103ef5780601f106103c4576101008083540402835291602001916103ef565b820191906000526020600020905b8154815290600101906020018083116103d257829003601f168201915b505050505081526020016004820154815260200160058201805461041290610ae8565b80601f016020809104026020016040519081016040528092919081815260200182805461043e90610ae8565b801561048b5780601f106104605761010080835404028352916020019161048b565b820191906000526020600020905b81548152906001019060200180831161046e57829003601f168201915b5050505050815250508152602001906001019061028d565b50505050905090565b8280546104b890610ae8565b90600052602060002090601f0160209004810192826104da5760008555610521565b82601f106104f357805160ff1916838001178555610521565b82800160010185558215610521579182015b82811115610520578251825591602001919060010190610505565b5b50905061052e9190610532565b5090565b5b8082111561054b576000816000905550600101610533565b5090565b600061056261055d84610936565b610905565b90508281526020810184848401111561057a57600080fd5b610585848285610aa6565b509392505050565b60008135905061059c81610bb8565b92915050565b600082601f8301126105b357600080fd5b81356105c384826020860161054f565b91505092915050565b6000813590506105db81610bcf565b92915050565b600080600080608085870312156105f757600080fd5b60006106058782880161058d565b9450506020610616878288016105cc565b935050604085013567ffffffffffffffff81111561063357600080fd5b61063f878288016105a2565b925050606085013567ffffffffffffffff81111561065c57600080fd5b610668878288016105a2565b91505092959194509250565b600061068083836107ab565b905092915050565b61069181610a70565b82525050565b6106a081610a34565b82525050565b6106af81610a22565b82525050565b6106be81610a22565b82525050565b60006106cf82610976565b6106d98185610999565b9350836020820285016106eb85610966565b8060005b8581101561072757848403895281516107088582610674565b94506107138361098c565b925060208a019950506001810190506106ef565b50829750879550505050505092915050565b600061074482610981565b61074e81856109aa565b935061075e818560208601610ab5565b61076781610ba7565b840191505092915050565b600061077d82610981565b61078781856109bb565b9350610797818560208601610ab5565b6107a081610ba7565b840191505092915050565b600060c0830160008301516107c360008601826106a6565b5060208301516107d66020860182610697565b5060408301516107e9604086018261083b565b50606083015184820360608601526108018282610739565b9150506080830151610816608086018261083b565b5060a083015184820360a086015261082e8282610739565b9150508091505092915050565b61084481610a66565b82525050565b61085381610a66565b82525050565b600060c08201905061086e60008301896106b5565b61087b6020830188610688565b610888604083018761084a565b818103606083015261089a8186610772565b90506108a9608083018561084a565b81810360a08301526108bb8184610772565b9050979650505050505050565b600060208201905081810360008301526108e281846106c4565b905092915050565b60006020820190506108ff600083018461084a565b92915050565b6000604051905081810181811067ffffffffffffffff8211171561092c5761092b610b78565b5b8060405250919050565b600067ffffffffffffffff82111561095157610950610b78565b5b601f19601f8301169050602081019050919050565b6000819050602082019050919050565b600081519050919050565b600081519050919050565b6000602082019050919050565b600082825260208201905092915050565b600082825260208201905092915050565b600082825260208201905092915050565b60006109d782610a66565b91506109e283610a66565b9250827fffffffffffffffffffffffffffffffffffffffffffffffffffffffffffffffff03821115610a1757610a16610b1a565b5b828201905092915050565b6000610a2d82610a46565b9050919050565b6000610a3f82610a46565b9050919050565b600073ffffffffffffffffffffffffffffffffffffffff82169050919050565b6000819050919050565b6000610a7b82610a82565b9050919050565b6000610a8d82610a94565b9050919050565b6000610a9f82610a46565b9050919050565b82818337600083830152505050565b60005b83811015610ad3578082015181840152602081019050610ab8565b83811115610ae2576000848401525b50505050565b60006002820490506001821680610b0057607f821691505b60208210811415610b1457610b13610b49565b5b50919050565b7f4e487b7100000000000000000000000000000000000000000000000000000000600052601160045260246000fd5b7f4e487b7100000000000000000000000000000000000000000000000000000000600052602260045260246000fd5b7f4e487b7100000000000000000000000000000000000000000000000000000000600052604160045260246000fd5b6000601f19601f8301169050919050565b610bc181610a34565b8114610bcc57600080fd5b50565b610bd881610a66565b8114610be357600080fd5b5056fea2646970667358221220dc47def15a667199068ca46072875e074f79ff94abca90f807397212462877d364736f6c63430008000033",
  "linkReferences": {},
  "deployedLinkReferences": {}
}